:100000000C946A000C9467060C9490060C94BD0640
:100010000C9487000C9487000C9447080C94F50707
:100020000C941E080C94CC070C941D070C944607E6
:100030000C9487000C9487000C9487000C94870024
:100040000C9487000C9487000C9487000C94870014
:100050000C9487009104950499049D04A104A504BF
:10006000A904AD04B104B504B904BD04C104C504B8
:10007000C904CD04D104D504D904DD04E104E504A8
:10008000E904ED04F104F504F904FD040105050596
:1000900009050D051B051F05230527052B052F0544
:1000A000330537053B053F05430547054B054F0520
:1000B000530557055B055F05630567056B056F0510
:1000C000730577057B057F05830587058B058F0500
:1000D0009305970511241FBECFE5D8E0DEBFCDBF45
:1000E00010E0A0E6B0E0ECE6F4E102C005900D926D
:1000F000A039B107D9F720E0A0E9B0E001C01D9216
:10010000A03BB207E1F70E9454030C94340A0C940C
:1001100000008091920090919300A0919400B09182
:1001200095000196A11DB11D8093920090939300BC
:10013000A0939400B09395008FEA9CE39DBD8CBD85
:1001400008950F931F93809191008F5F809391008A
:1001500090E0A0E0B0E0409196005091970060914F
:1001600098007091990084179507A607B70729F49E
:1001700061E081E00E9481041FC00091960010910F
:100180009700209198003091990040919A005091E9
:100190009B0060919C0070919D00400F511F621F59
:1001A000731F84179507A607B70731F460E081E055
:1001B0000E9481041092910086E082BF1F910F91EE
:1001C0000895109290000E94430388E00E9411035A
:1001D00089E00E9411038BE00E9411038AE00E94D3
:1001E0000D0361E081E00E948104089578940E94EB
:1001F000710480E00E94F00563E080E00E94020646
:1002000061EE70E080E00E94DB050895CF92DF92FE
:10021000EF92FF92CF93C82F682F70E080E090E0BC
:100220000E94110920E030E048EC52E40E9470087E
:100230002AE037ED43E25BE30E949F0920E030E0D3
:100240004AE754E40E949F0920E030E04AE754E482
:100250000E949F090E94E2080F2EFAEFCF2ED12CA8
:10026000E12CF12CF02DA70196010E940C0A20939D
:100270009A0030939B0040939C0050939D0064E64D
:1002800070E06C1B7109072E000C880B990B0E9403
:10029000130920E030E048EC52E40E9470082AE0A4
:1002A00037ED43E25BE30E949F0920E030E04AE73C
:1002B00054E40E949F0920E030E04AE754E40E94A1
:1002C0009F090E94E208A70196010E940C0A209350
:1002D00096003093970040939800509399001092A5
:1002E000910081EA90E00E9418070E94140786E0BE
:1002F00082BF62E080E00E94EA06CF91FF90EF901B
:10030000DF90CF90089562E080E00E946F0789E857
:1003100090E00E94C7070E94C3078FEA9CE39DBD3F
:100320008CBD109292001092930010929400109243
:100330009500089587E00E94FD02811158C10E9436
:1003400083014091920050919300609194007091CC
:10035000950080916C0090916D00A0916E00B0911D
:100360006F00481759076A077B0759F781E08093A8
:1003700090003DC182E30E9406018AE00E941103C1
:1003800088E00E940D030E948301809190008111FA
:1003900007C0089580E00E94150381E00E941503C4
:1003A000409192005091930060919400709195005B
:1003B0008091680090916900A0916A00B0916B00F3
:1003C000481759076A077B0729F70E94430388E00B
:1003D0000E9411038AE00E940D030E948301809114
:1003E0009000882309F408C1409192005091930035
:1003F00060919400709195008091600090916100EF
:10040000A0916200B0916300481759076A077B0703
:1004100059F761E081E00E9481048AE00E941103A3
:100420008BE00E940D030E94830180919000811156
:1004300007C0089580E00E942C0381E00E9415030C
:1004400040919200509193006091940070919500BA
:100450008091640090916500A0916600B091670062
:10046000481759076A077B0729F70E9443038BE067
:100470000E9411038AE00E940D030E948301809173
:100480009000882309F4B8C04091920050919300E5
:10049000609194007091950080916000909161004E
:1004A000A0916200B0916300481759076A077B0763
:1004B00059F78EE10E9406018AE00E94110389E04B
:1004C0000E940D030E94830180919000811107C05A
:1004D000089580E00E94150381E00E941503409179
:1004E00092005091930060919400709195008091DA
:1004F000640090916500A0916600B0916700481774
:1005000059076A077B0729F70E94430389E00E9485
:1005100011038AE00E940D030E94830180919000E4
:10052000882309F469C04091920050919300609132
:100530009400709195008091600090916100A0916D
:100540006200B0916300481759076A077B0758F3A8
:1005500061E081E00E9481048AE00E9411038BE047
:100560000E940D030E94830180919000811107C0B9
:10057000089580E00E942C0381E00E9415034091C1
:100580009200509193006091940070919500809139
:10059000640090916500A0916600B09167004817D3
:1005A00059076A077B0729F70E9443038BE00E94E3
:1005B00011038AE00E940D030E9483018091900044
:1005C0008823D1F040919200509193006091940063
:1005D000709195008091600090916100A0916200FF
:1005E000B0916300481759076A077B0758F3809159
:1005F0009000813009F4BECE0895CF93C82F0E9499
:100600009B05811107C08C2F0E949B058823D9F37D
:1006100080E001C081E0CF91089561E00E948104F3
:10062000089560E00E9481040895882319F08130C4
:1006300051F0089561E080E10E94810460E081E171
:100640000E948104089561E083E10E94810460E0DA
:1006500084E10E9481040895882319F0813051F0CB
:10066000089560E080E10E94810461E081E10E94E0
:100670008104089560E083E10E94810461E084E1E7
:100680000E948104089560E080E10E94810460E09E
:1006900081E10E94810460E083E10E94810460E0C6
:1006A00084E10E94810408950E94F6000E949A014C
:1006B000FDCF613009F460C020F0623009F4B7C0AA
:1006C0000895883098F44AB3877021E030E0B9018A
:1006D00002C0660F771F8A95E2F7CB01942F982B03
:1006E0009ABB9BB3809589238BBB089598EF980F95
:1006F000983098F447B3877021E030E0B90102C028
:10070000660F771F8A95E2F7CB01942F982B97BB42
:1007100098B38095892388BB089590EF980F9830FF
:1007200098F444B3877021E030E0B90102C0660F4D
:10073000771F8A95E2F7CB01942F982B94BB95B342
:100740008095892385BB089598EE980F983008F01E
:10075000C7C041B3877021E030E0B90102C0660F25
:10076000771F8A95E2F7CB01942F982B91BB92B318
:100770008095892382BB0895883098F44AB38770A6
:1007800021E030E0B90102C0660F771F8A95E2F7D9
:10079000CB018095942F98239ABB9BB389238BBB65
:1007A000089598EF980F983098F447B3877021E038
:1007B00030E0B90102C0660F771F8A95E2F7CB01DE
:1007C0008095942F982397BB98B3892388BB08956D
:1007D00090EF980F983098F444B3877021E030E0A0
:1007E000B90102C0660F771F8A95E2F7CB018095A9
:1007F000942F982394BB95B3892385BB089598EED5
:10080000980F983008F06CC041B3877021E030E059
:10081000B90102C0660F771F8A95E2F7CB01809578
:10082000942F982391BB92B3892382BB089588307B
:1008300098F44AB3877021E030E0B90102C0660F36
:10084000771F8A95E2F7CB01962F909594239ABB58
:100850009BB3892B8BBB089598EF980F983098F431
:1008600047B3877021E030E0B90102C0660F771FFF
:100870008A95E2F7CB01962F9095942397BB98B376
:10088000892B88BB089590EF980F983098F444B363
:10089000877021E030E0B90102C0660F771F8A95AA
:1008A000E2F7CB01962F9095942394BB95B3892BB7
:1008B00085BB089598EE980F983090F441B38770F7
:1008C00021E030E0B90102C0660F771F8A95E2F798
:1008D000CB01962F9095942391BB92B3892B82BB29
:1008E0000895CF93C0E009C0EC2FF0E0E059FF4F2E
:1008F00060818C2F0E945903CF5FC032A8F3CF9143
:100900000895662309F48DC0613009F013C190E0A9
:100910008032910508F00EC1FC01E65DFF4F0C949A
:100920002E0A8BB381608BBB08958BB382608BBB27
:1009300008958BB384608BBB08958BB388608BBBA9
:1009400008958BB380618BBB08958BB380628BBBA2
:1009500008958BB380648BBB08958BB380688BBB89
:10096000089588B3816088BB089588B3826088BB8E
:10097000089588B3846088BB089588B3886088BB75
:10098000089588B3806188BB089588B3806288BB6E
:10099000089588B3806488BB089588B3806888BB55
:1009A000089585B3816085BB089585B3826085BB5A
:1009B000089585B3846085BB089585B3886085BB41
:1009C000089585B3806185BB089585B3806285BB3A
:1009D000089585B3806485BB089584B3806884BB23
:1009E000089582B3816082BB089582B3826082BB26
:1009F000089582B3846082BB089582B3886082BB0D
:100A0000089582B3806182BB089582B3806282BB05
:100A1000089582B3806482BB089582B3806882BBEC
:100A2000089590E08032910508F084C0FC01E65BF7
:100A3000FF4F0C942E0A8BB38E7F8BBB08958BB324
:100A40008D7F8BBB08958BB38B7F8BBB08958BB34E
:100A5000877F8BBB08958BB38F7E8BBB08958BB341
:100A60008F7D8BBB08958BB38F7B8BBB08958BB32E
:100A70008F778BBB089588B38E7F88BB089588B32A
:100A80008D7F88BB089588B38B7F88BB089588B31A
:100A9000877F88BB089588B38F7E88BB089588B30D
:100AA0008F7D88BB089588B38F7B88BB089588B3FA
:100AB0008F7788BB089585B38E7F85BB089585B3F6
:100AC0008D7F85BB089585B38B7F85BB089585B3E6
:100AD000877F85BB089585B38F7E85BB089585B3D9
:100AE0008F7D85BB089585B38F7B85BB089585B3C6
:100AF0008F7785BB089582B38E7F82BB089582B3C2
:100B00008D7F82BB089582B38B7F82BB089582B3B1
:100B1000877F82BB089582B38F7E82BB089582B3A4
:100B20008F7D82BB089582B38F7B82BB089582B391
:100B30008F7782BB0895883060F499B3282F27708F
:100B4000892F90E002C0959587952A95E2F78170EC
:100B5000089598EF980F983060F496B3282F277077
:100B6000892F90E002C0959587952A95E2F78170CC
:100B7000089590EF980F983060F493B3282F277062
:100B8000892F90E002C0959587952A95E2F78170AC
:100B9000089598EE980F983060F490B3282F27703E
:100BA000892F90E002C0959587952A95E2F781708C
:100BB000089580E00895813049F018F0823059F0AE
:100BC00008957093A3006093A20008957093A1000C
:100BD0006093A000089570939F0060939E00089515
:100BE000813041F018F0823049F008958BB780646D
:100BF0008BBF08958BB780688BBF08958BB78062D9
:100C00008BBF0895853009F451C06130C9F028F0D8
:100C1000623041F16330C1F10895863039F485B70F
:100C20008E7F85BF85B78D7F85BF0895813009F0A0
:100C30004DC085B78B7F85BF85B7877F85BF0895FA
:100C4000873039F485B7877F85BF85B7846085BFD6
:100C500008958630D9F585B78D7F85BF85B78160CA
:100C600085BF0895873039F485B7886085BF85B71B
:100C70008B7F85BF0895863049F585B7826085BF33
:100C800085B78E7F85BF0895873039F485B7886032
:100C900085BF85B7846085BF08958630B9F485B770
:100CA000826085BF85B7816085BF0895623019F085
:100CB000633029F008C084B78F7B84BF089584B760
:100CC000806484BF089584B78F7B84BF08951F928A
:100CD0000F920FB60F9211242F933F934F935F9370
:100CE0006F937F938F939F93AF93BF93EF93FF93F4
:100CF000E091A200F091A300309709F00995FF91CF
:100D0000EF91BF91AF919F918F917F916F915F9183
:100D10004F913F912F910F900FBE0F901F901895FC
:100D20001F920F920FB60F9211242F933F934F9360
:100D30005F936F937F938F939F93AF93BF93EF9343
:100D4000FF938091A2009091A300892B29F0E0915C
:100D5000A000F091A1000995FF91EF91BF91AF9193
:100D60009F918F917F916F915F914F913F912F91C3
:100D70000F900FBE0F901F9018951F920F920FB6F5
:100D80000F9211242F933F934F935F936F937F9311
:100D90008F939F93AF93BF93EF93FF938091A200A4
:100DA0009091A300892B29F0E0919E00F0919F0083
:100DB0000995FF91EF91BF91AF919F918F917F9195
:100DC0006F915F914F913F912F910F900FBE0F90B8
:100DD0001F901895813069F028F0823089F08330B7
:100DE000B1F01BC083B78F7B83BF83B7877F83BF7F
:100DF00014C083B7806483BF83B7877F83BF0DC070
:100E000083B78F7B83BF83B7886083BF06C083B7F8
:100E1000806483BF83B7886083BF83B7887F83BFC5
:100E200083B7682B63BF089589B7816089BF089530
:100E30009093AF008093AE0008951F920F920FB66B
:100E40000F9211242F933F934F935F936F937F9350
:100E50008F939F93AF93BF93EF93FF93E091AC0079
:100E6000F091AD00309709F00995FF91EF91BF9196
:100E7000AF919F918F917F916F915F914F913F9132
:100E80002F910F900FBE0F901F9018951F920F92E9
:100E90000FB60F9211242F933F934F935F936F934D
:100EA0007F938F939F93AF93BF93EF93FF93E091C3
:100EB000AE00F091AF00309709F00995FF91EF91E6
:100EC000BF91AF919F918F917F916F915F914F9162
:100ED0003F912F910F900FBE0F901F901895823069
:100EE00029F128F4882341F0813099F045C08330FE
:100EF00051F18430A9F140C08FB58E7F8FBD8FB581
:100F00008D7F8FBD8EB5877F8EBD8EB58F7E8EBD5A
:100F100033C08FB58E7F8FBD8FB58D7F8FBD8EB562
:100F200088608EBD8EB580618EBD26C08FB58E7FE8
:100F30008FBD8FB58D7F8FBD8EB588608EBD8EB510
:100F40008F7E8EBD19C08FB58E7F8FBD8FB58260AD
:100F50008FBD8EB588608EBD8EB580618EBD0CC094
:100F60008FB581608FBD8FB582608FBD8EB5886073
:100F70008EBD8EB580618EBD8EB5887F8EBD8EB5DF
:100F8000682B6EBD089589B7806189BF08959093DD
:100F9000A9008093A80008951F920F920FB60F9298
:100FA00011242F933F934F935F936F937F938F936E
:100FB0009F93AF93BF93EF93FF93E091AA00F091BB
:100FC000AB00309709F00995FF91EF91BF91AF9178
:100FD0009F918F917F916F915F914F913F912F9151
:100FE0000F900FBE0F901F9018951F920F920FB683
:100FF0000F9211242F933F934F935F936F937F939F
:101000008F939F93AF93BF93EF93FF93E091A800CB
:10101000F091A900309709F00995FF91EF91BF91E8
:10102000AF919F918F917F916F915F914F913F9180
:101030002F910F900FBE0F901F9018951F920F9237
:101040000FB60F9211242F933F934F935F936F939B
:101050007F938F939F93AF93BF93EF93FF93E09111
:10106000A600F091A700309709F00995FF91EF9144
:10107000BF91AF919F918F917F916F915F914F91B0
:101080003F912F910F900FBE0F901F9018951F92B8
:101090000F920FB60F9211242F933F934F935F93AC
:1010A0006F937F938F939F93AF93BF93EF93FF9330
:1010B000E091A400F091A500309709F00995FF9107
:1010C000EF91BF91AF919F918F917F916F915F91C0
:1010D0004F913F912F910F900FBE0F901F90189539
:1010E0000E9484080C9465090E945E0958F00E94D1
:1010F000570940F029F45F3F29F00C944E09511133
:101100000C9499090C9454090E94760968F3992368
:10111000B1F3552391F3951B550BBB27AA276217F3
:101120007307840738F09F5F5F4F220F331F441F00
:10113000AA1FA9F335D00E2E3AF0E0E832D0915034
:101140005040E695001CCAF72BD0FE2F29D0660F21
:10115000771F881FBB1F261737074807AB07B0E864
:1011600009F0BB0B802DBF01FF2793585F4F3AF06A
:101170009E3F510578F00C944E090C9499095F3FFD
:10118000E4F3983ED4F3869577956795B795F795F0
:101190009F5FC9F7880F911D9695879597F90895D8
:1011A000E1E0660F771F881FBB1F62177307840774
:1011B000BA0720F0621B730B840BBA0BEE1F88F783
:1011C000E09508950E947E0988F09F5798F0B92F06
:1011D0009927B751B0F0E1F0660F771F881F991F6C
:1011E0001AF0BA95C9F714C0B13091F00E9498096D
:1011F000B1E008950C949809672F782F8827B85F7D
:1012000039F0B93FCCF3869577956795B395D9F7C3
:101210003EF490958095709561957F4F8F4F9F4FCD
:101220000895E89409C097FB3EF4909580957095D9
:1012300061957F4F8F4F9F4F9923A9F0F92F96E922
:10124000BB279395F695879577956795B795F11197
:10125000F8CFFAF4BB0F11F460FF1BC06F5F7F4F34
:101260008F4F9F4F16C0882311F096E911C0772346
:1012700021F09EE8872F762F05C0662371F096E84F
:10128000862F70E060E02AF09A95660F771F881F1E
:10129000DAF7880F9695879597F9089597F99F67DC
:1012A00080E870E060E008959FEF80EC08950024EE
:1012B0000A941616170618060906089500240A94BB
:1012C00012161306140605060895092E0394000C41
:1012D00011F4882352F0BB0F40F4BF2B11F460FFD0
:1012E00004C06F5F7F4F8F4F9F4F089557FD9058F9
:1012F000440F551F59F05F3F71F04795880F97FBDA
:10130000991F61F09F3F79F0879508951216130693
:101310001406551FF2CF4695F1DF08C016161706C2
:101320001806991FF1CF86957105610508940895F7
:10133000E894BB2766277727CB0197F908950E9489
:10134000B2090C9465090E94570938F00E945E09A1
:1013500020F0952311F00C944E090C94540911249B
:101360000C9499090E94760970F3959FC1F3950F2B
:1013700050E0551F629FF001729FBB27F00DB11D19
:10138000639FAA27F00DB11DAA1F649F6627B00DA9
:10139000A11D661F829F2227B00DA11D621F739F92
:1013A000B00DA11D621F839FA00D611D221F749FA0
:1013B0003327A00D611D231F849F600D211D822FE7
:1013C000762F6A2F11249F5750409AF0F1F088230E
:1013D0004AF0EE0FFF1FBB1F661F771F881F91503B
:1013E0005040A9F79E3F510580F00C944E090C9493
:1013F00099095F3FE4F3983ED4F386957795679516
:10140000B795F795E7959F5FC1F7FE2B880F911D64
:101410009695879597F90895A1E21A2EAA1BBB1BF2
:10142000FD010DC0AA1FBB1FEE1FFF1FA217B307B0
:10143000E407F50720F0A21BB30BE40BF50B661FC6
:10144000771F881F991F1A9469F76095709580958A
:1014500090959B01AC01BD01CF010895EE0FFF1FD8
:0C1460000590F491E02D0994F894FFCF62
:10146C000A000000280000003C00000014000000EE
:10147C000000010101010102000000000000000059
:10148C000000000000000000000002020202020244
:00000001FF
