S01900004D6F76696E67204361722044657369676E2E73726563EB
S11300000C946A000C94A1050C94CA050C94F70591
S11300100C9487000C9487000C945F070C940D07D4
S11300200C9436070C94E4060C944D060C94760656
S11300300C9487000C9487000C9487000C94870020
S11300400C9487000C9487000C9487000C94870010
S11300500C9487007D047F04810483048504870451
S113006089048B048D048F049104930495049704EC
S113007099049B049D049F04A104A304A504A7045C
S1130080A904AB04AD04AF04B104B304B504B704CC
S1130090B904BB04C704C904CB04CD04CF04D10400
S11300A0D304D504D704D904DB04DD04DF04E1045C
S11300B0E304E504E704E904EB04ED04EF04F104CC
S11300C0F304F504F704F904FB04FD04FF0401053B
S11300D00305050511241FBECFE5D8E0DEBFCDBF63
S11300E010E0A0E6B0E0ECE9F2E102C005900D9268
S11300F0A039B107D9F720E0A0E9B0E001C01D9212
S1130100A03BB207E1F70E944C030C944C090C94F9
S113011000008091920090919300A0919400B0917E
S113012095000196A11DB11D8093920090939300B8
S1130130A0939400B09395008FEA9CE39DBD8CBD81
S113014008950F931F93809191008F5F8093910086
S113015090E0A0E0B0E0409196005091970060914B
S113016098007091990084179507A607B70729F49A
S113017061E081E00E946D041FC00091960010911F
S11301809700209198003091990040919A005091E5
S11301909B0060919C0070919D00400F511F621F55
S11301A0731F84179507A607B70731F460E081E051
S11301B00E946D041092910086E082BF1F910F91FE
S11301C00895109290000E943C0388E00E9411035D
S11301D089E00E9411038BE00E9411038AE00E94CF
S11301E00E0361E081E00C946D0478940E945A043B
S11301F080E00E94400562E080E00E94500561EECC
S113020070E080E00C942B05CF92DF92EF92FF9286
S1130210CF93C82F682F70E080E090E00E942908F7
S113022020E030E048EC52E40E9488072AE037EDF1
S113023043E25BE30E94B70820E030E04AE754E47D
S11302400E94B70820E030E04AE754E40E94B7086F
S11302500E94FA072AEFC22ED12CE12CF12CA7011F
S113026096010E94240920939A0030939B004093A6
S11302709C0050939D0064E670E06C1B7109072E8E
S1130280000C880B990B0E942B0820E030E048EC0E
S113029052E40E9488072AE037ED43E25BE30E94C0
S11302A0B70820E030E04AE754E40E94B70820E0B1
S11302B030E04AE754E40E94B7080E94FA07A70115
S11302C096010E942409209396003093970040934E
S11302D09800509399001092910081EA90E00E9456
S11302E048060E94440686E082BF62E080E0CF9127
S11302F0FF90EF90DF90CF900C94240662E080E0B2
S11303000E949F0689E890E00E94DF060E94DB06B7
S11303108FEA9CE39DBD8CBD1092920010929300D5
S11303201092940010929500089587E00E94FE02B6
S113033081113FC00E947E01409192005091930030
S1130340609194007091950080916C0090916D0083
S1130350A0916E00B0916F00481759076A077B0798
S113036059F781E08093900024C00E943C038BE005
S11303700E9411038AE00E940E030E947E01809174
S11303809000882309F439C1409192005091930060
S1130390609194007091950080916000909161004B
S11303A0A0916200B0916300481759076A077B0760
S11303B058F380919000813009F01FC182E30E94BC
S11303C004018AE00E94110388E00E940E030E9447
S11303D07E0180919000811101C0089540919200A6
S11303E05091930060919400709195008091680001
S11303F090916900A0916A00B0916B004817590769
S11304006A077B0739F080E00E94140381E00E94B0
S11304101403E4CF0E943C0388E00E9411038AE0A5
S11304200E940E030E947E0180919000882309F4AB
S1130430E4C04091920050919300609194007091B7
S113044095008091600090916100A0916200B0914C
S11304506300481759076A077B0759F761E081E091
S11304600E946D048AE00E9411038BE00E940E0337
S11304700E947E0180919000811101C008954091F5
S11304809200509193006091940070919500809136
S1130490640090916500A0916600B09167004817D0
S11304A059076A077B0739F080E00E94280381E03E
S11304B00E941403E4CF0E943C038BE00E941103CA
S11304C08AE00E940E030E947E018091900088239E
S11304D009F493C04091920050919300609194006C
S11304E0709195008091600090916100A0916200EC
S11304F0B0916300481759076A077B0759F78EE1E3
S11305000E9404018AE00E94110389E00E940E0304
S11305100E947E0180919000811101C00895409154
S11305209200509193006091940070919500809195
S1130530640090916500A0916600B091670048172F
S113054059076A077B0739F080E00E94140381E0B1
S11305500E941403E4CF0E943C0389E00E9411032B
S11305608AE00E940E030E947E01809190008823FD
S113057009F443C04091920050919300609194001B
S1130580709195008091600090916100A09162004B
S1130590B0916300481759076A077B0758F361E075
S11305A081E00E946D048AE00E9411038BE00E94A6
S11305B00E030E947E0180919000811101C0089574
S11305C04091920050919300609194007091950035
S11305D08091640090916500A0916600B0916700DD
S11305E0481759076A077B0709F4BFCE80E00E94C9
S11305F0280381E00E941403E3CF0895CF93C82F0A
S11306000E940705811107C08C2F0E9407058823CB
S1130610D9F380E001C081E0CF91089561E00C94AA
S11306206D0460E00C946D04882319F0813041F06E
S1130630089561E080E10E946D0460E081E106C0FC
S113064061E083E10E946D0460E084E10C946D0438
S1130650882319F0813041F0089560E080E10E9420
S11306606D0461E081E106C060E083E10E946D04F5
S113067061E084E10C946D0460E080E10E946D040B
S113068060E081E10E946D0460E083E10E946D04FA
S113069060E084E10C946D040E94F5000E949501D1
S11306A0FDCF613009F457C020F0623009F4ABC0CB
S11306B00895883080F44AB321E030E0B90102C0E3
S11306C0660F771F8A95E2F7CB01942F982B9ABB7C
S11306D09BB3809551C098EF980F983088F447B336
S11306E0877021E030E0B90102C0660F771F8A9558
S11306F0E2F7CB01942F982B97BB98B3809553C006
S113070090EF980F983088F444B3877021E030E07C
S1130710B90102C0660F771F8A95E2F7CB01942FC7
S1130720982B94BB95B3809555C098EE980F98304C
S113073008F0BFC041B3877021E030E0B90102C0C6
S1130740660F771F8A95E2F7CB01942F982B91BB04
S113075092B3809556C0883090F44AB321E030E0DB
S1130760B90102C0660F771F8A95E2F7CB01809525
S1130770942F98239ABB9BB389238BBB089598EF3E
S1130780980F983098F447B3877021E030E0B901AE
S113079002C0660F771F8A95E2F7CB018095942FEC
S11307A0982397BB98B3892388BB089590EF980F3B
S11307B0983090F444B3877021E030E0B90102C06E
S11307C0660F771F8A95E2F7CB018095942F9823C3
S11307D094BB95B3892355C098EE980F983008F0D0
S11307E068C041B3877021E030E0B90102C0660FF0
S11307F0771F8A95E2F7CB018095942F982391BBBC
S113080092B3892355C0883088F44AB321E030E09C
S1130810B90102C0660F771F8A95E2F7CB01962FC4
S1130820909594239ABB9BB3892BA7CF98EF980FED
S1130830983090F447B3877021E030E0B90102C0EA
S1130840660F771F8A95E2F7CB01962F9095942334
S113085097BB98B3892BA8CF90EF980F983098F452
S113086044B3877021E030E0B90102C0660F771FFE
S11308708A95E2F7CB01962F9095942394BB95B378
S1130880892B85BB089598EE980F983090F441B366
S1130890877021E030E0B90102C0660F771F8A95A6
S11308A0E2F7CB01962F9095942391BB92B3892BB9
S11308B082BB08950F931F93CF9300E710E0C0E02D
S11308C0F80161918F018C2F0E945103CF5FC032D8
S11308D0B9F7CF911F910F910895662309F44DC084
S11308E0613009F093C090E08032910508F08EC029
S11308F0FC01E65DFF4F0C944609D89A0895D99AF5
S11309000895DA9A0895DB9A0895DC9A0895DD9A99
S11309100895DE9A0895DF9A0895C09A0895C19AB9
S11309200895C29A0895C39A0895C49A0895C59AD9
S11309300895C69A0895C79A0895A89A0895A99AF9
S11309400895AA9A0895AB9A0895AC9A0895AD9A19
S11309500895AE9A0895A79A0895909A0895919A41
S11309600895929A0895939A0895949A0895959A59
S11309700895969A0895979A089590E08032910583
S113098008F044C0FC01E65BFF4F0C944609D8987C
S11309900895D9980895DA980895DB980895DC9815
S11309A00895DD980895DE980895DF980895C09815
S11309B00895C1980895C2980895C3980895C49855
S11309C00895C5980895C6980895C7980895A89855
S11309D00895A9980895AA980895AB980895AC9895
S11309E00895AD980895AE980895AF980895909895
S11309F008959198089592980895939808959498D5
S1130A000895959808959698089597980895482F6D
S1130A10883020F499B3892F90E014C088EF840FB4
S1130A20883010F426B30BC080EF840F883010F4A4
S1130A3023B305C088EE840F883058F420B330E027
S1130A404770C90102C0959587954A95E2F7817070
S1130A50089580E00895813049F018F0823059F00B
S1130A6008957093A3006093A20008957093A10069
S1130A706093A000089570939F0060939E00089572
S1130A80813039F018F0823039F008958BB78064E2
S1130A9005C08BB7806802C08BB780628BBF089596
S1130AA0853009F443C06130B1F028F06230E9F0D8
S1130AB0633059F10895863031F485B78E7F85BF50
S1130AC085B78D7F31C08130D9F585B78B7F85BFE0
S1130AD085B7877F29C0873019F485B7877F19C008
S1130AE0863071F585B78D7F1CC0873031F485B7AA
S1130AF0886085BF85B78B7F17C0863009F585B7B9
S1130B00826085BF85B78E7F0FC0873031F485B78B
S1130B10886085BF85B7846007C0863089F485B74F
S1130B20826085BF85B7816085BF0895623029F0F2
S1130B30633019F484B7806402C084B78F7B84BFA8
S1130B4008951F920F920FB60F9211242F933F9383
S1130B504F935F936F937F938F939F93AF93BF93C1
S1130B60EF93FF93E091A200F091A300309709F076
S1130B700995FF91EF91BF91AF919F918F917F91D3
S1130B806F915F914F913F912F910F900FBE0F90F6
S1130B901F9018951F920F920FB60F9211242F9346
S1130BA03F934F935F936F937F938F939F93AF93F1
S1130BB0BF93EF93FF938091A2009091A300892BA0
S1130BC029F0E091A000F091A1000995FF91EF9127
S1130BD0BF91AF919F918F917F916F915F914F9151
S1130BE03F912F910F900FBE0F901F9018951F9259
S1130BF00F920FB60F9211242F933F934F935F934D
S1130C006F937F938F939F93AF93BF93EF93FF93D0
S1130C108091A2009091A300892B29F0E0919E007D
S1130C20F0919F000995FF91EF91BF91AF919F9132
S1130C308F917F916F915F914F913F912F910F9081
S1130C400FBE0F901F901895813059F038F0823004
S1130C5071F0833091F483B780640BC083B78F7BCA
S1130C6002C083B7806483BF83B7877F05C083B71F
S1130C708F7B83BF83B7886083BF83B7887F83BF3D
S1130C8083B7682B63BF089589B7816089BF0895CE
S1130C909093AF008093AE0008951F920F920FB609
S1130CA00F9211242F933F934F935F936F937F93EE
S1130CB08F939F93AF93BF93EF93FF93E091AC0017
S1130CC0F091AD00309709F00995FF91EF91BF9134
S1130CD0AF919F918F917F916F915F914F913F91D0
S1130CE02F910F900FBE0F901F9018951F920F9287
S1130CF00FB60F9211242F933F934F935F936F93EB
S1130D007F938F939F93AF93BF93EF93FF93E09160
S1130D10AE00F091AF00309709F00995FF91EF9183
S1130D20BF91AF919F918F917F916F915F914F91FF
S1130D303F912F910F900FBE0F901F901895823006
S1130D40D9F050F4882379F0813071F58FB58E7F16
S1130D508FBD8FB58D7F21C08330D1F0843021F5D4
S1130D608FB5816017C08FB58E7F8FBD8FB58D7F96
S1130D708FBD8EB5877F08C08FB58E7F8FBD8FB531
S1130D808D7F8FBD8EB588608EBD8EB58F7E0BC076
S1130D908FB58E7F8FBD8FB582608FBD8EB5886015
S1130DA08EBD8EB580618EBD8EB5887F8EBD8EB5AD
S1130DB0682B6EBD089589B7806189BF08959093AB
S1130DC0A9008093A80008951F920F920FB60F9266
S1130DD011242F933F934F935F936F937F938F933C
S1130DE09F93AF93BF93EF93FF93E091AA00F09189
S1130DF0AB00309709F00995FF91EF91BF91AF9146
S1130E009F918F917F916F915F914F913F912F911E
S1130E100F900FBE0F901F9018951F920F920FB650
S1130E200F9211242F933F934F935F936F937F936C
S1130E308F939F93AF93BF93EF93FF93E091A80099
S1130E40F091A900309709F00995FF91EF91BF91B6
S1130E50AF919F918F917F916F915F914F913F914E
S1130E602F910F900FBE0F901F9018951F920F9205
S1130E700FB60F9211242F933F934F935F936F9369
S1130E807F938F939F93AF93BF93EF93FF93E091DF
S1130E90A600F091A700309709F00995FF91EF9112
S1130EA0BF91AF919F918F917F916F915F914F917E
S1130EB03F912F910F900FBE0F901F9018951F9286
S1130EC00F920FB60F9211242F933F934F935F937A
S1130ED06F937F938F939F93AF93BF93EF93FF93FE
S1130EE0E091A400F091A500309709F00995FF91D5
S1130EF0EF91BF91AF919F918F917F916F915F918E
S1130F004F913F912F910F900FBE0F901F90189506
S1130F100E949C070C947D080E94760858F00E9459
S1130F206F0840F029F45F3F29F00C9466085111D2
S1130F300C94B1080C946C080E948E0868F39923F1
S1130F40B1F3552391F3951B550BBB27AA276217C1
S1130F507307840738F09F5F5F4F220F331F441FCE
S1130F60AA1FA9F335D00E2E3AF0E0E832D0915002
S1130F705040E695001CCAF72BD0FE2F29D0660FEF
S1130F80771F881FBB1F261737074807AB07B0E832
S1130F9009F0BB0B802DBF01FF2793585F4F3AF038
S1130FA09E3F510578F00C9466080C94B1085F3F9D
S1130FB0E4F3983ED4F3869577956795B795F795BE
S1130FC09F5FC9F7880F911D9695879597F90895A6
S1130FD0E1E0660F771F881FBB1F62177307840742
S1130FE0BA0720F0621B730B840BBA0BEE1F88F751
S1130FF0E09508950E94960888F09F5798F0B92FBD
S11310009927B751B0F0E1F0660F771F881F991F39
S11310101AF0BA95C9F714C0B13091F00E94B00823
S1131020B1E008950C94B008672F782F8827B85F33
S113103039F0B93FCCF3869577956795B395D9F791
S11310403EF490958095709561957F4F8F4F9F4F9B
S11310500895E89409C097FB3EF4909580957095A7
S113106061957F4F8F4F9F4F9923A9F0F92F96E9F0
S1131070BB279395F695879577956795B795F11165
S1131080F8CFFAF4BB0F11F460FF1BC06F5F7F4F02
S11310908F4F9F4F16C0882311F096E911C0772314
S11310A021F09EE8872F762F05C0662371F096E81D
S11310B0862F70E060E02AF09A95660F771F881FEC
S11310C0DAF7880F9695879597F9089597F99F67AA
S11310D080E870E060E008959FEF80EC08950024BC
S11310E00A941616170618060906089500240A9489
S11310F012161306140605060895092E0394000C0F
S113110011F4882352F0BB0F40F4BF2B11F460FF9D
S113111004C06F5F7F4F8F4F9F4F089557FD9058C6
S1131120440F551F59F05F3F71F04795880F97FBA7
S1131130991F61F09F3F79F0879508951216130661
S11311401406551FF2CF4695F1DF08C01616170690
S11311501806991FF1CF86957105610508940895C5
S1131160E894BB2766277727CB0197F908950E9457
S1131170CA080C947D080E946F0838F00E94760813
S113118020F0952311F00C9466080C946C0811243B
S11311900C94B1080E948E0870F3959FC1F3950FCB
S11311A050E0551F629FF001729FBB27F00DB11DE7
S11311B0639FAA27F00DB11DAA1F649F6627B00D77
S11311C0A11D661F829F2227B00DA11D621F739F60
S11311D0B00DA11D621F839FA00D611D221F749F6E
S11311E03327A00D611D231F849F600D211D822FB5
S11311F0762F6A2F11249F5750409AF0F1F08823DC
S11312004AF0EE0FFF1FBB1F661F771F881F915008
S11312105040A9F79E3F510580F00C9466080C9449
S1131220B1085F3FE4F3983ED4F3869577956795CC
S1131230B795F795E7959F5FC1F7FE2B880F911D32
S11312409695879597F90895A1E21A2EAA1BBB1BC0
S1131250FD010DC0AA1FBB1FEE1FFF1FA217B3077E
S1131260E407F50720F0A21BB30BE40BF50B661F94
S1131270771F881F991F1A9469F760957095809558
S113128090959B01AC01BD01CF010895EE0FFF1FA6
S10F12900590F491E02D0994F894FFCF30
S113129C0A000000280000003C00000014000000BC
S11312AC0000010101010102000000000000000027
S11312BC0000000000000000000002020202020212
S9030000FC
